{
  "network": "mainnet",
  "blockNumber": 19000000,
  "blockHash": "0xc782b2edcfd0876fe3463e90c9d342724d936bb81f9f5311968c271a85d467c5",
  "header": {
    "parentHash": "0x1111111111111111111111111111111111111111111111111111111111111111",
    "sha3Uncles": "0x2222222222222222222222222222222222222222222222222222222222222222",
    "miner": "0x3333333333333333333333333333333333333333",
    "stateRoot": "0x4444444444444444444444444444444444444444444444444444444444444444",
    "transactionsRoot": "0x5555555555555555555555555555555555555555555555555555555555555555",
    "receiptsRoot": "0x6666666666666666666666666666666666666666666666666666666666666666",
    "logsBloom": "0x",
    "difficulty": "0x1",
    "number": "0x2",
    "gasLimit": "0x3",
    "gasUsed": "0x4",
    "timestamp": "0x5",
    "extraData": "0x1234",
    "mixHash": "0x7777777777777777777777777777777777777777777777777777777777777777",
    "nonce": "0x8888888888888888",
    "baseFeePerGas": "0xa",
    "withdrawalsRoot": "0x9999999999999999999999999999999999999999999999999999999999999999"
  },
  "headerRlp": "0xf9010fa01111111111111111111111111111111111111111111111111111111111111111a02222222222222222222222222222222222222222222222222222222222222222943333333333333333333333333333333333333333a04444444444444444444444444444444444444444444444444444444444444444a05555555555555555555555555555555555555555555555555555555555555555a06666666666666666666666666666666666666666666666666666666666666666800102030405821234a077777777777777777777777777777777777777777777777777777777777777778888888888888888880aa09999999999999999999999999999999999999999999999999999999999999999",
  "generated": "2025-02-20T00:00:00Z",
  "notes": "Placeholder data for offline development"
}
