{
  "network": "mainnet",
  "blockNumber": 4300347,
  "blockHash": "0x6ec3dfae0444935dd24978cffbb781f4940606e9f99e969c5bb4fc65cdd0db9c",
  "header": {
    "baseFeePerGas": "0x17d7840",
    "difficulty": "0x0",
    "extraData": "0x000000000000000000000000000000000000000000000000000000000000004b",
    "gasLimit": "0xe5d5e40",
    "gasUsed": "0x22e56",
    "hash": "0x6ec3dfae0444935dd24978cffbb781f4940606e9f99e969c5bb4fc65cdd0db9c",
    "logsBloom": "0x00000000000000000000000100000000000000000000000000000000000020000000000000000000000000000000000000000000400000000000000000002040000000000040000000000000000000000000000000000000000000000000000000000000000000000000000000000000000000000000000000000000000000000000000000000000000000000000000000000000000000000000020000000000002000000000000000000000000000000000000800000000000000000008000000000000000000000000000000000000000000000000000000000000000100000002000000000000000000000000000000004000000000000000404000000000",
    "miner": "0x5f62d006c10c009ff50c878cd6157ac861c99990",
    "mixHash": "0x8614485c8a8bc9a776890f38e88de4f9f2b7c662ee325c758291b58ed9a568d7",
    "nonce": "0x0000000000000000",
    "number": "0x419e3b",
    "parentHash": "0xe884a0a2d794bf52cda89501d46c6f49c2b83dd5783ee6e487a1231302f96113",
    "receiptsRoot": "0xdec54f087051a3c382eb7b69d6b16407ae6a8f7cd49c6c6a926f6b6c60522a38",
    "sha3Uncles": "0x1dcc4de8dec75d7aab85b567b6ccd41ad312451b948a7413f0a142fd40d49347",
    "size": "0x406",
    "stateRoot": "0x74489bbb865695f836d41209eadc1ef7af244d4bc79957627be36c51038381cb",
    "timestamp": "0x69840c7b",
    "transactions": [
      "0x831f229c0aefaa7956f900dd02e963784c3bd5f84f27bcaae6b80e06739f273f"
    ],
    "transactionsRoot": "0x0d8f95b017b1b9e36181f7f205bdd1958a2e8877cf2e18f31fa7f9bb46226af3",
    "uncles": [],
    "withdrawals": [],
    "withdrawalsRoot": "0x56e81f171bcc55a6ff8345e692c0f86e5b48e01b996cadc001622fb5e363b421"
  },
  "headerRlp": "0xf90241a0e884a0a2d794bf52cda89501d46c6f49c2b83dd5783ee6e487a1231302f96113a01dcc4de8dec75d7aab85b567b6ccd41ad312451b948a7413f0a142fd40d49347945f62d006c10c009ff50c878cd6157ac861c99990a074489bbb865695f836d41209eadc1ef7af244d4bc79957627be36c51038381cba00d8f95b017b1b9e36181f7f205bdd1958a2e8877cf2e18f31fa7f9bb46226af3a0dec54f087051a3c382eb7b69d6b16407ae6a8f7cd49c6c6a926f6b6c60522a38b90100000000000000000000000001000000000000000000000000000000000000200000000000000000000000000000000000000000004000000000000000000020400000000000400000000000000000000000000000000000000000000000000000000000000000000000000000000000000000000000000000000000000000000000000000000000000000000000000000000000000000000000000200000000000020000000000000000000000000000000000008000000000000000000080000000000000000000000000000000000000000000000000000000000000001000000020000000000000000000000000000000040000000000000004040000000008083419e3b840e5d5e4083022e568469840c7ba0000000000000000000000000000000000000000000000000000000000000004ba08614485c8a8bc9a776890f38e88de4f9f2b7c662ee325c758291b58ed9a568d788000000000000000084017d7840a056e81f171bcc55a6ff8345e692c0f86e5b48e01b996cadc001622fb5e363b421",
  "generated": "2026-02-05T03:20:32.919Z"
}